{
  "contractName": "TwitterThreadSnapshot",
  "abi": [
    {
      "inputs": [],
      "stateMutability": "nonpayable",
      "type": "constructor"
    },
    {
      "anonymous": false,
      "inputs": [
        {
          "indexed": true,
          "internalType": "address",
          "name": "owner",
          "type": "address"
        },
        {
          "indexed": true,
          "internalType": "address",
          "name": "approved",
          "type": "address"
        },
        {
          "indexed": true,
          "internalType": "uint256",
          "name": "tokenId",
          "type": "uint256"
        }
      ],
      "name": "Approval",
      "type": "event"
    },
    {
      "anonymous": false,
      "inputs": [
        {
          "indexed": true,
          "internalType": "address",
          "name": "owner",
          "type": "address"
        },
        {
          "indexed": true,
          "internalType": "address",
          "name": "operator",
          "type": "address"
        },
        {
          "indexed": false,
          "internalType": "bool",
          "name": "approved",
          "type": "bool"
        }
      ],
      "name": "ApprovalForAll",
      "type": "event"
    },
    {
      "anonymous": false,
      "inputs": [
        {
          "indexed": true,
          "internalType": "address",
          "name": "from",
          "type": "address"
        },
        {
          "indexed": true,
          "internalType": "address",
          "name": "to",
          "type": "address"
        },
        {
          "indexed": true,
          "internalType": "uint256",
          "name": "tokenId",
          "type": "uint256"
        }
      ],
      "name": "Transfer",
      "type": "event"
    },
    {
      "inputs": [
        {
          "internalType": "address",
          "name": "to",
          "type": "address"
        },
        {
          "internalType": "uint256",
          "name": "tokenId",
          "type": "uint256"
        }
      ],
      "name": "approve",
      "outputs": [],
      "stateMutability": "nonpayable",
      "type": "function"
    },
    {
      "inputs": [
        {
          "internalType": "address",
          "name": "owner",
          "type": "address"
        }
      ],
      "name": "balanceOf",
      "outputs": [
        {
          "internalType": "uint256",
          "name": "",
          "type": "uint256"
        }
      ],
      "stateMutability": "view",
      "type": "function",
      "constant": true
    },
    {
      "inputs": [],
      "name": "baseURI",
      "outputs": [
        {
          "internalType": "string",
          "name": "",
          "type": "string"
        }
      ],
      "stateMutability": "view",
      "type": "function",
      "constant": true
    },
    {
      "inputs": [
        {
          "internalType": "uint256",
          "name": "tokenId",
          "type": "uint256"
        }
      ],
      "name": "getApproved",
      "outputs": [
        {
          "internalType": "address",
          "name": "",
          "type": "address"
        }
      ],
      "stateMutability": "view",
      "type": "function",
      "constant": true
    },
    {
      "inputs": [
        {
          "internalType": "address",
          "name": "owner",
          "type": "address"
        },
        {
          "internalType": "address",
          "name": "operator",
          "type": "address"
        }
      ],
      "name": "isApprovedForAll",
      "outputs": [
        {
          "internalType": "bool",
          "name": "",
          "type": "bool"
        }
      ],
      "stateMutability": "view",
      "type": "function",
      "constant": true
    },
    {
      "inputs": [],
      "name": "name",
      "outputs": [
        {
          "internalType": "string",
          "name": "",
          "type": "string"
        }
      ],
      "stateMutability": "view",
      "type": "function",
      "constant": true
    },
    {
      "inputs": [
        {
          "internalType": "uint256",
          "name": "tokenId",
          "type": "uint256"
        }
      ],
      "name": "ownerOf",
      "outputs": [
        {
          "internalType": "address",
          "name": "",
          "type": "address"
        }
      ],
      "stateMutability": "view",
      "type": "function",
      "constant": true
    },
    {
      "inputs": [
        {
          "internalType": "address",
          "name": "from",
          "type": "address"
        },
        {
          "internalType": "address",
          "name": "to",
          "type": "address"
        },
        {
          "internalType": "uint256",
          "name": "tokenId",
          "type": "uint256"
        }
      ],
      "name": "safeTransferFrom",
      "outputs": [],
      "stateMutability": "nonpayable",
      "type": "function"
    },
    {
      "inputs": [
        {
          "internalType": "address",
          "name": "from",
          "type": "address"
        },
        {
          "internalType": "address",
          "name": "to",
          "type": "address"
        },
        {
          "internalType": "uint256",
          "name": "tokenId",
          "type": "uint256"
        },
        {
          "internalType": "bytes",
          "name": "_data",
          "type": "bytes"
        }
      ],
      "name": "safeTransferFrom",
      "outputs": [],
      "stateMutability": "nonpayable",
      "type": "function"
    },
    {
      "inputs": [
        {
          "internalType": "address",
          "name": "operator",
          "type": "address"
        },
        {
          "internalType": "bool",
          "name": "approved",
          "type": "bool"
        }
      ],
      "name": "setApprovalForAll",
      "outputs": [],
      "stateMutability": "nonpayable",
      "type": "function"
    },
    {
      "inputs": [
        {
          "internalType": "string",
          "name": "",
          "type": "string"
        }
      ],
      "name": "snapshotHashesToTokenId",
      "outputs": [
        {
          "internalType": "uint256",
          "name": "",
          "type": "uint256"
        }
      ],
      "stateMutability": "view",
      "type": "function",
      "constant": true
    },
    {
      "inputs": [
        {
          "internalType": "bytes4",
          "name": "interfaceId",
          "type": "bytes4"
        }
      ],
      "name": "supportsInterface",
      "outputs": [
        {
          "internalType": "bool",
          "name": "",
          "type": "bool"
        }
      ],
      "stateMutability": "view",
      "type": "function",
      "constant": true
    },
    {
      "inputs": [],
      "name": "symbol",
      "outputs": [
        {
          "internalType": "string",
          "name": "",
          "type": "string"
        }
      ],
      "stateMutability": "view",
      "type": "function",
      "constant": true
    },
    {
      "inputs": [
        {
          "internalType": "uint256",
          "name": "index",
          "type": "uint256"
        }
      ],
      "name": "tokenByIndex",
      "outputs": [
        {
          "internalType": "uint256",
          "name": "",
          "type": "uint256"
        }
      ],
      "stateMutability": "view",
      "type": "function",
      "constant": true
    },
    {
      "inputs": [
        {
          "internalType": "uint256",
          "name": "",
          "type": "uint256"
        }
      ],
      "name": "tokenIdToSnapshotHashes",
      "outputs": [
        {
          "internalType": "string",
          "name": "",
          "type": "string"
        }
      ],
      "stateMutability": "view",
      "type": "function",
      "constant": true
    },
    {
      "inputs": [
        {
          "internalType": "address",
          "name": "owner",
          "type": "address"
        },
        {
          "internalType": "uint256",
          "name": "index",
          "type": "uint256"
        }
      ],
      "name": "tokenOfOwnerByIndex",
      "outputs": [
        {
          "internalType": "uint256",
          "name": "",
          "type": "uint256"
        }
      ],
      "stateMutability": "view",
      "type": "function",
      "constant": true
    },
    {
      "inputs": [
        {
          "internalType": "uint256",
          "name": "tokenId",
          "type": "uint256"
        }
      ],
      "name": "tokenURI",
      "outputs": [
        {
          "internalType": "string",
          "name": "",
          "type": "string"
        }
      ],
      "stateMutability": "view",
      "type": "function",
      "constant": true
    },
    {
      "inputs": [],
      "name": "totalSupply",
      "outputs": [
        {
          "internalType": "uint256",
          "name": "",
          "type": "uint256"
        }
      ],
      "stateMutability": "view",
      "type": "function",
      "constant": true
    },
    {
      "inputs": [
        {
          "internalType": "address",
          "name": "from",
          "type": "address"
        },
        {
          "internalType": "address",
          "name": "to",
          "type": "address"
        },
        {
          "internalType": "uint256",
          "name": "tokenId",
          "type": "uint256"
        }
      ],
      "name": "transferFrom",
      "outputs": [],
      "stateMutability": "nonpayable",
      "type": "function"
    },
    {
      "inputs": [
        {
          "internalType": "uint256",
          "name": "_tokenId",
          "type": "uint256"
        }
      ],
      "name": "exists",
      "outputs": [
        {
          "internalType": "bool",
          "name": "",
          "type": "bool"
        }
      ],
      "stateMutability": "view",
      "type": "function",
      "constant": true
    },
    {
      "inputs": [
        {
          "internalType": "uint256",
          "name": "_tokenId",
          "type": "uint256"
        },
        {
          "internalType": "string",
          "name": "_uri",
          "type": "string"
        }
      ],
      "name": "setTokenURI",
      "outputs": [],
      "stateMutability": "nonpayable",
      "type": "function"
    },
    {
      "inputs": [
        {
          "internalType": "string",
          "name": "_baseURI",
          "type": "string"
        }
      ],
      "name": "setBaseURI",
      "outputs": [],
      "stateMutability": "nonpayable",
      "type": "function"
    },
    {
      "inputs": [
        {
          "internalType": "string",
          "name": "_snapshotFilecoinHash",
          "type": "string"
        },
        {
          "internalType": "address",
          "name": "_recipient",
          "type": "address"
        }
      ],
      "name": "mint",
      "outputs": [],
      "stateMutability": "nonpayable",
      "type": "function"
    }
  ],
  "bytecode": "0x60806040523480156200001157600080fd5b50604080518082018252601581527f54776974746572546872656164536e617073686f740000000000000000000000602080830191909152825180840190935260048352631512149160e21b90830152906200007d6301ffc9a760e01b6001600160e01b036200010216565b81516200009290600690602085019062000187565b508051620000a890600790602084019062000187565b50620000c46380ac58cd60e01b6001600160e01b036200010216565b620000df635b5e139f60e01b6001600160e01b036200010216565b620000fa63780e9d6360e01b6001600160e01b036200010216565b50506200022c565b6001600160e01b0319808216141562000162576040805162461bcd60e51b815260206004820152601c60248201527f4552433136353a20696e76616c696420696e7465726661636520696400000000604482015290519081900360640190fd5b6001600160e01b0319166000908152602081905260409020805460ff19166001179055565b828054600181600116156101000203166002900490600052602060002090601f016020900481019282601f10620001ca57805160ff1916838001178555620001fa565b82800160010185558215620001fa579182015b82811115620001fa578251825591602001919060010190620001dd565b50620002089291506200020c565b5090565b6200022991905b8082111562000208576000815560010162000213565b90565b61213b806200023c6000396000f3fe608060405234801561001057600080fd5b506004361061014d5760003560e01c80634f6ccce7116100c357806395d89b411161007c57806395d89b411461058b578063a22cb46514610593578063b88d4fde146105c1578063c87b56dd14610685578063e985e9c5146106a2578063ea05367c146106d05761014d565b80634f6ccce71461046257806355f804b31461047f5780636352211e146105235780636c0360eb1461054057806370a08231146105485780638179bda81461056e5761014d565b806318160ddd1161011557806318160ddd1461031c5780631c351a9d1461033657806323b872dd146103ad5780632f745c59146103e357806342842e0e1461040f5780634f558e79146104455761014d565b806301ffc9a71461015257806306fdde031461018d578063081812fc1461020a578063095ea7b314610243578063162094c414610271575b600080fd5b6101796004803603602081101561016857600080fd5b50356001600160e01b031916610774565b604080519115158252519081900360200190f35b610195610797565b6040805160208082528351818301528351919283929083019185019080838360005b838110156101cf5781810151838201526020016101b7565b50505050905090810190601f1680156101fc5780820380516001836020036101000a031916815260200191505b509250505060405180910390f35b6102276004803603602081101561022057600080fd5b503561082e565b604080516001600160a01b039092168252519081900360200190f35b61026f6004803603604081101561025957600080fd5b506001600160a01b038135169060200135610890565b005b61026f6004803603604081101561028757600080fd5b81359190810190604081016020820135600160201b8111156102a857600080fd5b8201836020820111156102ba57600080fd5b803590602001918460018302840111600160201b831117156102db57600080fd5b91908080601f01602080910402602001604051908101604052809392919081815260200183838082843760009201919091525092955061096b945050505050565b610324610979565b60408051918252519081900360200190f35b61026f6004803603604081101561034c57600080fd5b810190602081018135600160201b81111561036657600080fd5b82018360208201111561037857600080fd5b803590602001918460018302840111600160201b8311171561039957600080fd5b9193509150356001600160a01b031661098a565b61026f600480360360608110156103c357600080fd5b506001600160a01b03813581169160208101359091169060400135610a91565b610324600480360360408110156103f957600080fd5b506001600160a01b038135169060200135610ae8565b61026f6004803603606081101561042557600080fd5b506001600160a01b03813581169160208101359091169060400135610b19565b6101796004803603602081101561045b57600080fd5b5035610b34565b6103246004803603602081101561047857600080fd5b5035610b3f565b61026f6004803603602081101561049557600080fd5b810190602081018135600160201b8111156104af57600080fd5b8201836020820111156104c157600080fd5b803590602001918460018302840111600160201b831117156104e257600080fd5b91908080601f016020809104026020016040519081016040528093929190818152602001838380828437600092019190915250929550610b5b945050505050565b6102276004803603602081101561053957600080fd5b5035610b67565b610195610b95565b6103246004803603602081101561055e57600080fd5b50356001600160a01b0316610bf6565b6101956004803603602081101561058457600080fd5b5035610c5e565b610195610cf9565b61026f600480360360408110156105a957600080fd5b506001600160a01b0381351690602001351515610d5a565b61026f600480360360808110156105d757600080fd5b6001600160a01b03823581169260208101359091169160408201359190810190608081016060820135600160201b81111561061157600080fd5b82018360208201111561062357600080fd5b803590602001918460018302840111600160201b8311171561064457600080fd5b91908080601f016020809104026020016040519081016040528093929190818152602001838380828437600092019190915250929550610e5f945050505050565b6101956004803603602081101561069b57600080fd5b5035610eb7565b610179600480360360408110156106b857600080fd5b506001600160a01b038135811691602001351661115e565b610324600480360360208110156106e657600080fd5b810190602081018135600160201b81111561070057600080fd5b82018360208201111561071257600080fd5b803590602001918460018302840111600160201b8311171561073357600080fd5b91908080601f01602080910402602001604051908101604052809392919081815260200183838082843760009201919091525092955061118c945050505050565b6001600160e01b0319811660009081526020819052604090205460ff165b919050565b60068054604080516020601f60026000196101006001881615020190951694909404938401819004810282018101909252828152606093909290918301828280156108235780601f106107f857610100808354040283529160200191610823565b820191906000526020600020905b81548152906001019060200180831161080657829003601f168201915b505050505090505b90565b6000610839826111a9565b6108745760405162461bcd60e51b815260040180806020018281038252602c815260200180612004602c913960400191505060405180910390fd5b506000908152600460205260409020546001600160a01b031690565b600061089b82610b67565b9050806001600160a01b0316836001600160a01b031614156108ee5760405162461bcd60e51b81526004018080602001828103825260218152602001806120b46021913960400191505060405180910390fd5b806001600160a01b03166109006111bc565b6001600160a01b0316148061092157506109218161091c6111bc565b61115e565b61095c5760405162461bcd60e51b8152600401808060200182810382526038815260200180611f576038913960400191505060405180910390fd5b61096683836111c0565b505050565b610975828261122e565b5050565b60006109856002611291565b905090565b600c83836040518083838082843780830192505050925050509081526020016040518091039020546000146109f05760405162461bcd60e51b8152600401808060200182810382526030815260200180611ed76030913960400191505060405180910390fd5b600a8054600101908190556000818152600b60205260409020610a14908585611d7c565b5080600c8585604051808383808284378083019250505092505050908152602001604051809103902081905550610a4b828261129c565b610a8b8185858080601f01602080910402602001604051908101604052809392919081815260200183838082843760009201919091525061122e92505050565b50505050565b610aa2610a9c6111bc565b826113d6565b610add5760405162461bcd60e51b81526004018080602001828103825260318152602001806120d56031913960400191505060405180910390fd5b61096683838361147a565b6001600160a01b0382166000908152600160205260408120610b10908363ffffffff6115d816565b90505b92915050565b61096683838360405180602001604052806000815250610e5f565b6000610b13826111a9565b600080610b5360028463ffffffff6115e416565b509392505050565b610b6481611600565b50565b6000610b1382604051806060016040528060298152602001611fb9602991396002919063ffffffff61161316565b60098054604080516020601f60026000196101006001881615020190951694909404938401819004810282018101909252828152606093909290918301828280156108235780601f106107f857610100808354040283529160200191610823565b60006001600160a01b038216610c3d5760405162461bcd60e51b815260040180806020018281038252602a815260200180611f8f602a913960400191505060405180910390fd5b6001600160a01b0382166000908152600160205260409020610b1390611291565b600b6020908152600091825260409182902080548351601f600260001961010060018616150201909316929092049182018490048402810184019094528084529091830182828015610cf15780601f10610cc657610100808354040283529160200191610cf1565b820191906000526020600020905b815481529060010190602001808311610cd457829003601f168201915b505050505081565b60078054604080516020601f60026000196101006001881615020190951694909404938401819004810282018101909252828152606093909290918301828280156108235780601f106107f857610100808354040283529160200191610823565b610d626111bc565b6001600160a01b0316826001600160a01b03161415610dc8576040805162461bcd60e51b815260206004820152601960248201527f4552433732313a20617070726f766520746f2063616c6c657200000000000000604482015290519081900360640190fd5b8060056000610dd56111bc565b6001600160a01b03908116825260208083019390935260409182016000908120918716808252919093529120805460ff191692151592909217909155610e196111bc565b60408051841515815290516001600160a01b0392909216917f17307eab39ab6107e8899845ad3d59bd9653f200f220920489ca2b5937696c319181900360200190a35050565b610e70610e6a6111bc565b836113d6565b610eab5760405162461bcd60e51b81526004018080602001828103825260318152602001806120d56031913960400191505060405180910390fd5b610a8b8484848461162a565b6060610ec2826111a9565b610efd5760405162461bcd60e51b815260040180806020018281038252602f815260200180612085602f913960400191505060405180910390fd5b60008281526008602090815260409182902080548351601f6002600019610100600186161502019093169290920491820184900484028101840190945280845260609392830182828015610f925780601f10610f6757610100808354040283529160200191610f92565b820191906000526020600020905b815481529060010190602001808311610f7557829003601f168201915b505060095493945050505060026000196101006001841615020190911604610fbb579050610792565b80511561108c5760098160405160200180838054600181600116156101000203166002900480156110235780601f10611001576101008083540402835291820191611023565b820191906000526020600020905b81548152906001019060200180831161100f575b5050825160208401908083835b6020831061104f5780518252601f199092019160209182019101611030565b6001836020036101000a03801982511681845116808217855250505050505090500192505050604051602081830303815290604052915050610792565b60096110978461167c565b60405160200180838054600181600116156101000203166002900480156110f55780601f106110d35761010080835404028352918201916110f5565b820191906000526020600020905b8154815290600101906020018083116110e1575b5050825160208401908083835b602083106111215780518252601f199092019160209182019101611102565b6001836020036101000a03801982511681845116808217855250505050505090500192505050604051602081830303815290604052915050919050565b6001600160a01b03918216600090815260056020908152604080832093909416825291909152205460ff1690565b8051602081830181018051600c8252928201919093012091525481565b6000610b1360028363ffffffff61175716565b3390565b600081815260046020526040902080546001600160a01b0319166001600160a01b03841690811790915581906111f582610b67565b6001600160a01b03167f8c5be1e5ebec7d5bd14f71427d1e84f3dd0314c0f7b2291e5b200ac8c7c3b92560405160405180910390a45050565b611237826111a9565b6112725760405162461bcd60e51b815260040180806020018281038252602c815260200180612030602c913960400191505060405180910390fd5b6000828152600860209081526040909120825161096692840190611dfa565b6000610b1382611763565b6001600160a01b0382166112f7576040805162461bcd60e51b815260206004820181905260248201527f4552433732313a206d696e7420746f20746865207a65726f2061646472657373604482015290519081900360640190fd5b611300816111a9565b15611352576040805162461bcd60e51b815260206004820152601c60248201527f4552433732313a20746f6b656e20616c7265616479206d696e74656400000000604482015290519081900360640190fd5b61135e60008383611767565b6001600160a01b0382166000908152600160205260409020611386908263ffffffff61177216565b506113996002828463ffffffff61177e16565b5060405181906001600160a01b038416906000907fddf252ad1be2c89b69c2b068fc378daa952ba7f163c4a11628f55a4df523b3ef908290a45050565b60006113e1826111a9565b61141c5760405162461bcd60e51b815260040180806020018281038252602c815260200180611f2b602c913960400191505060405180910390fd5b600061142783610b67565b9050806001600160a01b0316846001600160a01b031614806114625750836001600160a01b03166114578461082e565b6001600160a01b0316145b806114725750611472818561115e565b949350505050565b826001600160a01b031661148d82610b67565b6001600160a01b0316146114d25760405162461bcd60e51b815260040180806020018281038252602981526020018061205c6029913960400191505060405180910390fd5b6001600160a01b0382166115175760405162461bcd60e51b8152600401808060200182810382526024815260200180611f076024913960400191505060405180910390fd5b611522838383611767565b61152d6000826111c0565b6001600160a01b0383166000908152600160205260409020611555908263ffffffff61179416565b506001600160a01b038216600090815260016020526040902061157e908263ffffffff61177216565b506115916002828463ffffffff61177e16565b5080826001600160a01b0316846001600160a01b03167fddf252ad1be2c89b69c2b068fc378daa952ba7f163c4a11628f55a4df523b3ef60405160405180910390a4505050565b6000610b1083836117a0565b60008080806115f38686611804565b9097909650945050505050565b8051610975906009906020840190611dfa565b600061162084848461187f565b90505b9392505050565b61163584848461147a565b61164184848484611949565b610a8b5760405162461bcd60e51b8152600401808060200182810382526032815260200180611ea56032913960400191505060405180910390fd5b6060816116a157506040805180820190915260018152600360fc1b6020820152610792565b8160005b81156116b957600101600a820491506116a5565b60608167ffffffffffffffff811180156116d257600080fd5b506040519080825280601f01601f1916602001820160405280156116fd576020820181803683370190505b50859350905060001982015b831561174e57600a840660300160f81b8282806001900393508151811061172c57fe5b60200101906001600160f81b031916908160001a905350600a84049350611709565b50949350505050565b6000610b108383611b84565b5490565b610966838383610966565b6000610b108383611b9c565b600061162084846001600160a01b038516611be6565b6000610b108383611c7d565b815460009082106117e25760405162461bcd60e51b8152600401808060200182810382526022815260200180611e836022913960400191505060405180910390fd5b8260000182815481106117f157fe5b9060005260206000200154905092915050565b8154600090819083106118485760405162461bcd60e51b8152600401808060200182810382526022815260200180611fe26022913960400191505060405180910390fd5b600084600001848154811061185957fe5b906000526020600020906002020190508060000154816001015492509250509250929050565b6000828152600184016020526040812054828161191a5760405162461bcd60e51b81526004018080602001828103825283818151815260200191508051906020019080838360005b838110156118df5781810151838201526020016118c7565b50505050905090810190601f16801561190c5780820380516001836020036101000a031916815260200191505b509250505060405180910390fd5b5084600001600182038154811061192d57fe5b9060005260206000209060020201600101549150509392505050565b600061195d846001600160a01b0316611d43565b61196957506001611472565b600060606001600160a01b038616630a85bd0160e11b6119876111bc565b89888860405160240180856001600160a01b03166001600160a01b03168152602001846001600160a01b03166001600160a01b0316815260200183815260200180602001828103825283818151815260200191508051906020019080838360005b83811015611a005781810151838201526020016119e8565b50505050905090810190601f168015611a2d5780820380516001836020036101000a031916815260200191505b5060408051601f198184030181529181526020820180516001600160e01b03166001600160e01b0319909a16999099178952518151919890975087965094509250829150849050835b60208310611a955780518252601f199092019160209182019101611a76565b6001836020036101000a0380198251168184511680821785525050505050509050019150506000604051808303816000865af19150503d8060008114611af7576040519150601f19603f3d011682016040523d82523d6000602084013e611afc565b606091505b509150915081611b4d57805115611b165780518082602001fd5b60405162461bcd60e51b8152600401808060200182810382526032815260200180611ea56032913960400191505060405180910390fd5b6000818060200190516020811015611b6457600080fd5b50516001600160e01b031916630a85bd0160e11b14935061147292505050565b60009081526001919091016020526040902054151590565b6000611ba88383611b84565b611bde57508154600181810184556000848152602080822090930184905584548482528286019093526040902091909155610b13565b506000610b13565b600082815260018401602052604081205480611c4b575050604080518082018252838152602080820184815286546001818101895560008981528481209551600290930290950191825591519082015586548684528188019092529290912055611623565b82856000016001830381548110611c5e57fe5b9060005260206000209060020201600101819055506000915050611623565b60008181526001830160205260408120548015611d395783546000198083019190810190600090879083908110611cb057fe5b9060005260206000200154905080876000018481548110611ccd57fe5b600091825260208083209091019290925582815260018981019092526040902090840190558654879080611cfd57fe5b60019003818190600052602060002001600090559055866001016000878152602001908152602001600020600090556001945050505050610b13565b6000915050610b13565b6000813f7fc5d2460186f7233c927e7db2dcc703c0e500b653ca82273b7bfad8045d85a470818114801590611472575050151592915050565b828054600181600116156101000203166002900490600052602060002090601f016020900481019282601f10611dbd5782800160ff19823516178555611dea565b82800160010185558215611dea579182015b82811115611dea578235825591602001919060010190611dcf565b50611df6929150611e68565b5090565b828054600181600116156101000203166002900490600052602060002090601f016020900481019282601f10611e3b57805160ff1916838001178555611dea565b82800160010185558215611dea579182015b82811115611dea578251825591602001919060010190611e4d565b61082b91905b80821115611df65760008155600101611e6e56fe456e756d657261626c655365743a20696e646578206f7574206f6620626f756e64734552433732313a207472616e7366657220746f206e6f6e20455243373231526563656976657220696d706c656d656e7465724d696e743a2054687265616420736e617073686f742068617320616c7265616479206265656e20746f6b656e697365644552433732313a207472616e7366657220746f20746865207a65726f20616464726573734552433732313a206f70657261746f7220717565727920666f72206e6f6e6578697374656e7420746f6b656e4552433732313a20617070726f76652063616c6c6572206973206e6f74206f776e6572206e6f7220617070726f76656420666f7220616c6c4552433732313a2062616c616e636520717565727920666f7220746865207a65726f20616464726573734552433732313a206f776e657220717565727920666f72206e6f6e6578697374656e7420746f6b656e456e756d657261626c654d61703a20696e646578206f7574206f6620626f756e64734552433732313a20617070726f76656420717565727920666f72206e6f6e6578697374656e7420746f6b656e4552433732314d657461646174613a2055524920736574206f66206e6f6e6578697374656e7420746f6b656e4552433732313a207472616e73666572206f6620746f6b656e2074686174206973206e6f74206f776e4552433732314d657461646174613a2055524920717565727920666f72206e6f6e6578697374656e7420746f6b656e4552433732313a20617070726f76616c20746f2063757272656e74206f776e65724552433732313a207472616e736665722063616c6c6572206973206e6f74206f776e6572206e6f7220617070726f766564a26469706673582212206b9e782c77a5ebfdac1cb632a34c731d0c7835cbef5e103c0d704085b819e6ac64736f6c63430006060033",
  "immutableReferences": {},
  "source": "pragma solidity 0.6.6;\n\nimport \"@openzeppelin/contracts/token/ERC721/ERC721.sol\";\n\n// TODO add access controls to ensure only bot can mint and only admin can call admin functions\n\n// TODO - is there a twitter ID we can use to enforce uniqueness in the thread being rolled up?\n// TODO - look at Filecoin hash length validation - is it the same as IPFS?\n// TODO - Pricing models?\n// TODO - ability to set base price fee as admin / or is the price variable - how to get base base?\n// TODO - setting expiry on NFT - user has to maintain valida Filecoin has the NFT to be valid?\n\n/**\n * @title Twitter Thread Snapshot / Tokenization Smart Contact\n * @notice Tokenizes twitter threads stored on the Filecoin network\n * @author BlockRocket.tech\n*/\ncontract TwitterThreadSnapshot is ERC721 {\n    uint256 tokenSupply;\n\n    mapping(uint256 => string) public tokenIdToSnapshotHashes;\n    mapping(string => uint256) public snapshotHashesToTokenId;\n\n    constructor () public ERC721(\"TwitterThreadSnapshot\", \"THRD\") {}\n\n    function _beforeTokenTransfer(address _from, address _to, uint256 _tokenId) internal virtual override(ERC721) {\n        super._beforeTokenTransfer(_from, _to, _tokenId);\n    }\n\n    /**\n     * @notice Utility method for checking whether an NFT exists\n     * @param _tokenId ID of the NFT\n     * @return bool True if an NFT exists, false if not\n    */\n    function exists(uint256 _tokenId) public view returns (bool) {\n        return _exists(_tokenId);\n    }\n\n    /**\n     * @notice Admin method for updating the token URI of a snapshot\n     * @param _tokenId ID of the snapshot\n     * @param _uri New token URI\n    */\n    function setTokenURI(uint256 _tokenId, string memory _uri) public {\n        _setTokenURI(_tokenId, _uri);\n    }\n\n    /**\n     * @notice Admin method for updating the base token URI of a snapshot\n     * @param _baseURI Base URI for all tokens\n    */\n    function setBaseURI(string memory _baseURI) public {\n        _setBaseURI(_baseURI);\n    }\n\n    /**\n     * @notice Performs the tokenisation of a given twitter thread\n     * @dev A twitter thread can only be tokenised once\n     * @param _snapshotFilecoinHash Base 58 string pointing to the twitter thread content\n     * @param _recipient Eth address for the new owner of the twitter thread snapshot\n    */\n    function mint(string calldata _snapshotFilecoinHash, address _recipient) external {\n        require(snapshotHashesToTokenId[_snapshotFilecoinHash] == 0, \"Mint: Thread snapshot has already been tokenised\");\n\n        tokenSupply = tokenSupply + 1;\n\n        uint256 tokenId = tokenSupply;\n\n        tokenIdToSnapshotHashes[tokenId] = _snapshotFilecoinHash;\n        snapshotHashesToTokenId[_snapshotFilecoinHash] = tokenId;\n\n        _mint(_recipient, tokenId);\n        _setTokenURI(tokenId, _snapshotFilecoinHash);\n    }\n}\n",
  "sourcePath": "/Users/Natalie/Projects/NFTSnapshot-Bot/smart-contracts/contracts/TwitterThreadSnapshot.sol",
  "compiler": {
    "name": "solc",
    "version": "0.6.6+commit.6c089d02.Emscripten.clang"
  },
  "schemaVersion": "3.1.0",
  "updatedAt": "2020-06-18T12:16:55.638Z",
  "networkType": "ethereum",
  "devdoc": {
    "author": "BlockRocket.tech",
    "methods": {
      "approve(address,uint256)": {
        "details": "Approves another address to transfer the given token ID The zero address indicates there is no approved address. There can only be one approved address per token at a given time. Can only be called by the token owner or an approved operator.",
        "params": {
          "to": "address to be approved for the given token ID",
          "tokenId": "uint256 ID of the token to be approved"
        }
      },
      "balanceOf(address)": {
        "details": "Gets the balance of the specified address.",
        "params": {
          "owner": "address to query the balance of"
        },
        "returns": {
          "_0": "uint256 representing the amount owned by the passed address"
        }
      },
      "baseURI()": {
        "details": "Returns the base URI set via {_setBaseURI}. This will be automatically added as a prefix in {tokenURI} to each token's URI, or to the token ID if no specific URI is set for that token ID."
      },
      "exists(uint256)": {
        "params": {
          "_tokenId": "ID of the NFT"
        },
        "returns": {
          "_0": "bool True if an NFT exists, false if not"
        }
      },
      "getApproved(uint256)": {
        "details": "Gets the approved address for a token ID, or zero if no address set Reverts if the token ID does not exist.",
        "params": {
          "tokenId": "uint256 ID of the token to query the approval of"
        },
        "returns": {
          "_0": "address currently approved for the given token ID"
        }
      },
      "isApprovedForAll(address,address)": {
        "details": "Tells whether an operator is approved by a given owner.",
        "params": {
          "operator": "operator address which you want to query the approval of",
          "owner": "owner address which you want to query the approval of"
        },
        "returns": {
          "_0": "bool whether the given operator is approved by the given owner"
        }
      },
      "mint(string,address)": {
        "details": "A twitter thread can only be tokenised once",
        "params": {
          "_recipient": "Eth address for the new owner of the twitter thread snapshot",
          "_snapshotFilecoinHash": "Base 58 string pointing to the twitter thread content"
        }
      },
      "name()": {
        "details": "Gets the token name.",
        "returns": {
          "_0": "string representing the token name"
        }
      },
      "ownerOf(uint256)": {
        "details": "Gets the owner of the specified token ID.",
        "params": {
          "tokenId": "uint256 ID of the token to query the owner of"
        },
        "returns": {
          "_0": "address currently marked as the owner of the given token ID"
        }
      },
      "safeTransferFrom(address,address,uint256)": {
        "details": "Safely transfers the ownership of a given token ID to another address If the target address is a contract, it must implement {IERC721Receiver-onERC721Received}, which is called upon a safe transfer, and return the magic value `bytes4(keccak256(\"onERC721Received(address,address,uint256,bytes)\"))`; otherwise, the transfer is reverted. Requires the msg.sender to be the owner, approved, or operator",
        "params": {
          "from": "current owner of the token",
          "to": "address to receive the ownership of the given token ID",
          "tokenId": "uint256 ID of the token to be transferred"
        }
      },
      "safeTransferFrom(address,address,uint256,bytes)": {
        "details": "Safely transfers the ownership of a given token ID to another address If the target address is a contract, it must implement {IERC721Receiver-onERC721Received}, which is called upon a safe transfer, and return the magic value `bytes4(keccak256(\"onERC721Received(address,address,uint256,bytes)\"))`; otherwise, the transfer is reverted. Requires the _msgSender() to be the owner, approved, or operator",
        "params": {
          "_data": "bytes data to send along with a safe transfer check",
          "from": "current owner of the token",
          "to": "address to receive the ownership of the given token ID",
          "tokenId": "uint256 ID of the token to be transferred"
        }
      },
      "setApprovalForAll(address,bool)": {
        "details": "Sets or unsets the approval of a given operator An operator is allowed to transfer all tokens of the sender on their behalf.",
        "params": {
          "approved": "representing the status of the approval to be set",
          "operator": "operator address to set the approval"
        }
      },
      "setBaseURI(string)": {
        "params": {
          "_baseURI": "Base URI for all tokens"
        }
      },
      "setTokenURI(uint256,string)": {
        "params": {
          "_tokenId": "ID of the snapshot",
          "_uri": "New token URI"
        }
      },
      "supportsInterface(bytes4)": {
        "details": "See {IERC165-supportsInterface}.     * Time complexity O(1), guaranteed to always use less than 30 000 gas."
      },
      "symbol()": {
        "details": "Gets the token symbol.",
        "returns": {
          "_0": "string representing the token symbol"
        }
      },
      "tokenByIndex(uint256)": {
        "details": "Gets the token ID at a given index of all the tokens in this contract Reverts if the index is greater or equal to the total number of tokens.",
        "params": {
          "index": "uint256 representing the index to be accessed of the tokens list"
        },
        "returns": {
          "_0": "uint256 token ID at the given index of the tokens list"
        }
      },
      "tokenOfOwnerByIndex(address,uint256)": {
        "details": "Gets the token ID at a given index of the tokens list of the requested owner.",
        "params": {
          "index": "uint256 representing the index to be accessed of the requested tokens list",
          "owner": "address owning the tokens list to be accessed"
        },
        "returns": {
          "_0": "uint256 token ID at the given index of the tokens list owned by the requested address"
        }
      },
      "tokenURI(uint256)": {
        "details": "Returns the URI for a given token ID. May return an empty string.     * If a base URI is set (via {_setBaseURI}), it is added as a prefix to the token's own URI (via {_setTokenURI}).     * If there is a base URI but no token URI, the token's ID will be used as its URI when appending it to the base URI. This pattern for autogenerated token URIs can lead to large gas savings.     * .Examples |=== |`_setBaseURI()` |`_setTokenURI()` |`tokenURI()` | \"\" | \"\" | \"\" | \"\" | \"token.uri/123\" | \"token.uri/123\" | \"token.uri/\" | \"123\" | \"token.uri/123\" | \"token.uri/\" | \"\" | \"token.uri/<tokenId>\" |===     * Requirements:     * - `tokenId` must exist."
      },
      "totalSupply()": {
        "details": "Gets the total amount of tokens stored by the contract.",
        "returns": {
          "_0": "uint256 representing the total amount of tokens"
        }
      },
      "transferFrom(address,address,uint256)": {
        "details": "Transfers the ownership of a given token ID to another address. Usage of this method is discouraged, use {safeTransferFrom} whenever possible. Requires the msg.sender to be the owner, approved, or operator.",
        "params": {
          "from": "current owner of the token",
          "to": "address to receive the ownership of the given token ID",
          "tokenId": "uint256 ID of the token to be transferred"
        }
      }
    },
    "title": "Twitter Thread Snapshot / Tokenization Smart Contact"
  },
  "userdoc": {
    "methods": {
      "exists(uint256)": {
        "notice": "Utility method for checking whether an NFT exists"
      },
      "mint(string,address)": {
        "notice": "Performs the tokenisation of a given twitter thread"
      },
      "setBaseURI(string)": {
        "notice": "Admin method for updating the base token URI of a snapshot"
      },
      "setTokenURI(uint256,string)": {
        "notice": "Admin method for updating the token URI of a snapshot"
      }
    },
    "notice": "Tokenizes twitter threads stored on the Filecoin network"
  }
}